{
  "contractName": "Election",
  "abi": [
    {
      "inputs": [],
      "stateMutability": "nonpayable",
      "type": "constructor"
    },
    {
      "anonymous": false,
      "inputs": [
        {
          "indexed": false,
          "internalType": "uint256",
          "name": "id",
          "type": "uint256"
        },
        {
          "indexed": false,
          "internalType": "string",
          "name": "name",
          "type": "string"
        },
        {
          "indexed": false,
          "internalType": "uint256",
          "name": "voteCount",
          "type": "uint256"
        }
      ],
      "name": "electionupdated",
      "type": "event"
    },
    {
      "anonymous": false,
      "inputs": [
        {
          "indexed": false,
          "internalType": "bool",
          "name": "avaliable",
          "type": "bool"
        }
      ],
      "name": "voteAvaliable",
      "type": "event"
    },
    {
      "inputs": [
        {
          "internalType": "uint256",
          "name": "",
          "type": "uint256"
        }
      ],
      "name": "candidates",
      "outputs": [
        {
          "internalType": "uint256",
          "name": "id",
          "type": "uint256"
        },
        {
          "internalType": "string",
          "name": "name",
          "type": "string"
        },
        {
          "internalType": "uint256",
          "name": "voteCount",
          "type": "uint256"
        }
      ],
      "stateMutability": "view",
      "type": "function",
      "constant": true
    },
    {
      "inputs": [],
      "name": "candidatesCount",
      "outputs": [
        {
          "internalType": "uint256",
          "name": "",
          "type": "uint256"
        }
      ],
      "stateMutability": "view",
      "type": "function",
      "constant": true
    },
    {
      "inputs": [
        {
          "internalType": "address",
          "name": "",
          "type": "address"
        }
      ],
      "name": "voted",
      "outputs": [
        {
          "internalType": "bool",
          "name": "",
          "type": "bool"
        }
      ],
      "stateMutability": "view",
      "type": "function",
      "constant": true
    },
    {
      "inputs": [
        {
          "internalType": "uint256",
          "name": "_id",
          "type": "uint256"
        }
      ],
      "name": "vote",
      "outputs": [],
      "stateMutability": "nonpayable",
      "type": "function"
    }
  ],
  "bytecode": "0x60806040523480156200001157600080fd5b5033600360006101000a81548173ffffffffffffffffffffffffffffffffffffffff021916908373ffffffffffffffffffffffffffffffffffffffff160217905550620000996040518060400160405280600781526020017f5072617975746800000000000000000000000000000000000000000000000000815250620000e560201b60201c565b620000df6040518060400160405280600b81526020017f446f6e616c64204475636b000000000000000000000000000000000000000000815250620000e560201b60201c565b62000305565b600080815480929190620000f99062000252565b919050555060405180606001604052806000548152602001828152602001600081525060016000805481526020019081526020016000206000820151816000015560208201518160010190805190602001906200015892919062000169565b506040820151816002015590505050565b8280546200017790620002cf565b90600052602060002090601f0160209004810192826200019b5760008555620001e7565b82601f10620001b657805160ff1916838001178555620001e7565b82800160010185558215620001e7579182015b82811115620001e6578251825591602001919060010190620001c9565b5b509050620001f69190620001fa565b5090565b5b8082111562000215576000816000905550600101620001fb565b5090565b7f4e487b7100000000000000000000000000000000000000000000000000000000600052601160045260246000fd5b6000819050919050565b60006200025f8262000248565b91507fffffffffffffffffffffffffffffffffffffffffffffffffffffffffffffffff82141562000295576200029462000219565b5b600182019050919050565b7f4e487b7100000000000000000000000000000000000000000000000000000000600052602260045260246000fd5b60006002820490506001821680620002e857607f821691505b60208210811415620002ff57620002fe620002a0565b5b50919050565b61087d80620003156000396000f3fe608060405234801561001057600080fd5b506004361061004c5760003560e01c80630121b93f146100515780632d35a8a21461006d5780633477ee2e1461008b578063aec2ccae146100bd575b600080fd5b61006b600480360381019061006691906103d4565b6100ed565b005b6100756102c1565b6040516100829190610410565b60405180910390f35b6100a560048036038101906100a091906103d4565b6102c7565b6040516100b4939291906104c4565b60405180910390f35b6100d760048036038101906100d29190610560565b610379565b6040516100e491906105a8565b60405180910390f35b600260003373ffffffffffffffffffffffffffffffffffffffff1673ffffffffffffffffffffffffffffffffffffffff16815260200190815260200160002060009054906101000a900460ff161561017a576040517f08c379a00000000000000000000000000000000000000000000000000000000081526004016101719061060f565b60405180910390fd5b6000600160008381526020019081526020016000206000015414156101d4576040517f08c379a00000000000000000000000000000000000000000000000000000000081526004016101cb9061067b565b60405180910390fd5b6001600082815260200190815260200160002060020160008154809291906101fb906106ca565b91905055506001600260003373ffffffffffffffffffffffffffffffffffffffff1673ffffffffffffffffffffffffffffffffffffffff16815260200190815260200160002060006101000a81548160ff0219169083151502179055507f3c841f91385f410e6f12269c9a0c0eb656e360f1e2d6f91144cfd51a10a2a318816001600084815260200190815260200160002060010160016000858152602001908152602001600020600201546040516102b693929190610809565b60405180910390a150565b60005481565b60016020528060005260406000206000915090508060000154908060010180546102f090610742565b80601f016020809104026020016040519081016040528092919081815260200182805461031c90610742565b80156103695780601f1061033e57610100808354040283529160200191610369565b820191906000526020600020905b81548152906001019060200180831161034c57829003601f168201915b5050505050908060020154905083565b60026020528060005260406000206000915054906101000a900460ff1681565b600080fd5b6000819050919050565b6103b18161039e565b81146103bc57600080fd5b50565b6000813590506103ce816103a8565b92915050565b6000602082840312156103ea576103e9610399565b5b60006103f8848285016103bf565b91505092915050565b61040a8161039e565b82525050565b60006020820190506104256000830184610401565b92915050565b600081519050919050565b600082825260208201905092915050565b60005b8381101561046557808201518184015260208101905061044a565b83811115610474576000848401525b50505050565b6000601f19601f8301169050919050565b60006104968261042b565b6104a08185610436565b93506104b0818560208601610447565b6104b98161047a565b840191505092915050565b60006060820190506104d96000830186610401565b81810360208301526104eb818561048b565b90506104fa6040830184610401565b949350505050565b600073ffffffffffffffffffffffffffffffffffffffff82169050919050565b600061052d82610502565b9050919050565b61053d81610522565b811461054857600080fd5b50565b60008135905061055a81610534565b92915050565b60006020828403121561057657610575610399565b5b60006105848482850161054b565b91505092915050565b60008115159050919050565b6105a28161058d565b82525050565b60006020820190506105bd6000830184610599565b92915050565b7f596f7520616c726561647920766f746564210000000000000000000000000000600082015250565b60006105f9601283610436565b9150610604826105c3565b602082019050919050565b60006020820190508181036000830152610628816105ec565b9050919050565b7f7061727469636970616e742773206964206e6f74206578697374000000000000600082015250565b6000610665601a83610436565b91506106708261062f565b602082019050919050565b6000602082019050818103600083015261069481610658565b9050919050565b7f4e487b7100000000000000000000000000000000000000000000000000000000600052601160045260246000fd5b60006106d58261039e565b91507fffffffffffffffffffffffffffffffffffffffffffffffffffffffffffffffff8214156107085761070761069b565b5b600182019050919050565b7f4e487b7100000000000000000000000000000000000000000000000000000000600052602260045260246000fd5b6000600282049050600182168061075a57607f821691505b6020821081141561076e5761076d610713565b5b50919050565b60008190508160005260206000209050919050565b6000815461079681610742565b6107a08186610436565b945060018216600081146107bb57600181146107cd57610800565b60ff1983168652602086019350610800565b6107d685610774565b60005b838110156107f8578154818901526001820191506020810190506107d9565b808801955050505b50505092915050565b600060608201905061081e6000830186610401565b81810360208301526108308185610789565b905061083f6040830184610401565b94935050505056fea2646970667358221220e22f84f2463d73f84997546c897dcea77393f78182b641e61ff086249495278464736f6c634300080b0033",
  "immutableReferences": {},
  "source": "// SPDX-License-Identifier: MIT\r\npragma solidity ^0.8.1;\r\ncontract Election {\r\n    struct Candidate {\r\n        uint id;\r\n        string name;\r\n        uint voteCount;\r\n    }\r\n\r\n    uint public candidatesCount;\r\n\r\n    mapping(uint => Candidate) public candidates;\r\n\r\n    mapping(address => bool) public voted;\r\n\r\n    event electionupdated(uint id, string name, uint voteCount);\r\n    event voteAvaliable(bool avaliable); \r\n    address owner;\r\n\r\n    constructor() {\r\n        owner = msg.sender;\r\n        addCandidate(\"Prayuth\");\r\n        addCandidate(\"Donald Duck\");\r\n    }\r\n\r\n    function addCandidate(string memory name) private { //private only smartcontact can interact\r\n        candidatesCount++;\r\n        candidates[candidatesCount] = Candidate(candidatesCount, name, 0);\r\n    }\r\n\r\n    function startVote() private {\r\n        require(owner == msg.sender, \"Only owner can start this vote\");\r\n        emit voteAvaliable(true);\r\n    }\r\n\r\n    function closeVote() private {\r\n        require(owner == msg.sender, \"Only owner can close this vote\");\r\n        emit voteAvaliable(false);\r\n    }\r\n\r\n    function vote(uint _id) public {\r\n        require(!voted[msg.sender], \"You already voted!\");\r\n        require(candidates[_id].id !=0, \"participant's id not exist\");\r\n        candidates[_id].voteCount++;\r\n        voted[msg.sender] = true;\r\n        emit electionupdated(_id,  candidates[_id].name,  candidates[_id].voteCount);\r\n    }\r\n\r\n}",
  "sourcePath": "E:\\Project\\Dapp-VoteCandidate\\contracts\\Election.sol",
  "compiler": {
    "name": "solc",
    "version": "0.8.11+commit.d7f03943.Emscripten.clang"
  },
  "schemaVersion": "3.4.5",
  "updatedAt": "2022-03-06T00:52:02.249Z",
  "networkType": "ethereum",
  "devdoc": {
    "kind": "dev",
    "methods": {},
    "version": 1
  },
  "userdoc": {
    "kind": "user",
    "methods": {},
    "version": 1
  }
}